:040000000A1686292D
:10000800FF00030E83018316B4000A08B5008A01B5
:1000180070088312A2000B1D21284508043A031D0D
:1000280019288611C501A5111E28A51D1D280830EF
:100038008606C50AD23081000B110C1C5828851081
:1000480025154408043A031D2B28A5142C28C40A96
:1000580083163A08133A031D3F28BA01831246084B
:100068008316B800831247088316B9008312C601A5
:10007800C701A51641288316BA0A83126F0883168A
:100088003D06031D512883124808EC004908ED007D
:10009800C801C901EF01251653288312EF0AE7307A
:1000A8008F0096308E000C108B1C6D28C80A03191F
:1000B800C90AC60A0319C70A251F6828A515C50154
:1000C8008615D23081008B16861400008610251400
:1000D8008B102208F000831635088A00340E83003E
:0600E800FF0E7F0E09006F
:1000EE00831203137008F100F0010830FC00710850
:1000FE00F40C03188628FC0B7F28F1010034031042
:10010E008B28F40C0318F107F10CF00CFC0B88286B
:02011E000800D7
:0E0120008312031353088A005208820008005D
:10012E00831203132308930083161418A0280000CB
:0A013E009B2883121308F00008004C
:10014800831603136A08F400740884000008003A50
:100158000319B028F40AA8286A087402F200F30107
:10016800031CF3030030F3007208F0007308F10079
:0201780008007D
:10017A00A53083120313FD00FD0BC1280000000007
:02018A0008006B
:10018C00710DF80DF90D7408F8027508031C750F44
:10019C00F902F00DF10D0F30FC00710DF80DF90D99
:1001AC007408701CDF28F8027508031C750FF9021F
:1001BC00E428F80775080318750FF907F00DF10D11
:1001CC00FC0BD3287018F0287408F807750803186E
:0801DC00750FF907000008008F
:1001E400013083160313EB0020306A02F00005305F
:1001F400F400772083166B08F007F0030030F10059
:100204001B30F0070F300318013EF107700883120A
:10021400D2007108D30090208A110A12A3009720FB
:1002240083166B08053A03191929EB0AF628831279
:06023400A3019720080061
:10023A0083120313F801F9011030FC00710DF80D57
:10024A00F90D7408F8027508031C750FF9020318F2
:10025A0035297408F80775080318750FF90703108C
:0A026A00F00DF10DFC0B2329080034
:100274007B15FB1F44290130F300F201F101F00169
:08028400FA0DF20CFF30080036
:0E028C00F201F101F001F801F3010030080069
:08029A00FA1FF2130030080006
:1002A20083160313EA176B178312871083166B08E2
:1002B2008312A300972083166A088312A300972053
:0402C2008714080095
:1002C600831603178C1C692900006329031364082D
:1002D600831203178D008316031365088312031711
:1002E6008C0083168C130C150B08F0008B135530FD
:1002F6008D00AA308D008C14F01B83298B13842962
:060306008B170C1108002A
:10030C00FB14FB1F9029FF30F300F200F100F0000A
:08031C00FA0DF20CFF3008009D
:100324008312031387148316B201B3018312A3014A
:10033400972083163308013A031DA229F7303206A9
:0E0344000319A829B20A0319B30A9829080060
:1003520083160313E8016508F1000130F00071080B
:100362000319B729F00D7010FF3EB129640884000B
:1003720070080005F200F1017208003A0319C3295E
:100382000130F10071086706031DED296608003C83
:100392000318D029BD20BD208316E603C7296508AE
:1003A200F1000130F00071080319DB29F00D701023
:1003B200FF3ED5296408840070080005F200F101AF
:1003C2007208003A0319E7290130F1007108670643
:0E03D200031DED29FF30E8006808F000080068
:1003E000831603136408F1006408F20072088400A5
:1003F0000008203A031DFE29F20AF629720884003B
:100400000008F0007108840070088000F10AF20A08
:10041000720884000008003A03190F2AFE297108A7
:06042000840080010800C9
:10042600831603139818192A0000132A64088312E6
:040436009900080021
:10043A00831603136608840020308000840A203063
:10044A008000840A20308000840A20308000840AD8
:10045A0030308000840A8001840A04306607E7008D
:10046A0000306506031D3B2A0030640603195F2A23
:10047A000A30F400F5016408F0006508F1001D2156
:10048A007808F0007908F1003030F0078316670821
:10049A008400700880000A30F400F5016408F00056
:1004AA006508F1001D2170088316E4007108E50053
:0604BA00E703352A0800EB
:1004C00083120313FB01FA01F901F801A001730D76
:1004D000F80D7408F8027508031C750FF902760808
:1004E000031C760FFA027708031C770FFB0200014A
:1004F000031C0130A002F30D0730FC00730DF80D52
:10050000F90DFA0DFB0DA00D7408731C992AF80261
:100510007508031C750FF9027608031C760FFA02A2
:100520007708031C770FFB020001031C0130A002B7
:10053000AA2AF80775080318750FF9077608031833
:10054000760FFA0777080318770FFB0700010318E7
:100550000130A007F30DFC0B7E2A720DF80DF90D8A
:10056000FA0DFB0DA00D7408731CC82AF80275085B
:10057000031C750FF9027608031C760FFA02770840
:10058000031C770FFB020001031C0130A002D92AD3
:10059000F80775080318750FF90776080318760F22
:1005A000FA0777080318770FFB07000103180130DB
:1005B000A007F20D0730FC00720DF80DF90DFA0DD1
:1005C000FB0DA00D7408721CF72AF8027508031CB5
:1005D000750FF9027608031C760FFA027708031CE0
:1005E000770FFB020001031C0130A002082BF80763
:1005F00075080318750FF90776080318760FFA07C0
:1006000077080318770FFB07000103180130A007D4
:10061000F20DFC0BDC2A710DF80DF90DFA0DFB0D36
:10062000A00D7408721C262BF8027508031C750FA8
:10063000F9027608031C760FFA027708031C770F7D
:10064000FB020001031C0130A002372BF8077508DC
:100650000318750FF90776080318760FFA0777085D
:100660000318770FFB07000103180130A007F10DF5
:100670000730FC00710DF80DF90DFA0DFB0DA00D02
:100680007408711C552BF8027508031C750FF902CC
:100690007608031C760FFA027708031C770FFB021B
:1006A0000001031C0130A002662BF807750803182F
:1006B000750FF90776080318760FFA0777080318FD
:1006C000770FFB07000103180130A007F10DFC0BA9
:1006D0003A2B700DF80DF90DFA0DFB0DA00D7408F5
:1006E000711C842BF8027508031C750FF90276083B
:1006F000031C760FFA027708031C770FFB02000138
:10070000031C0130A002952BF80775080318750F1C
:10071000F90776080318760FFA0777080318770F9A
:10072000FB07000103180130A007F00D0730FC00A3
:10073000700DF80DF90DFA0DFB0DA00D7408701C6D
:10074000B32BF8027508031C750FF9027608031C19
:10075000760FFA027708031C770FFB020001031CD7
:100760000130A002C42BF80775080318750FF907AC
:1007700076080318760FFA0777080318770FFB0738
:10078000000103180130A007F00DFC0B982B701826
:10079000D72B7408F80775080318750FF907760842
:1007A0000318760FFA0777080318770FFB0708007E
:1007B000831603136408EA006508EB0051218316D1
:1007C000E50A6608303EF1007108E6007108303A2B
:1007D000031D232CE7016708EE3EF00016300318D6
:1007E000013EF10070088312D2007108D3009020FE
:1007F0008A110A12A3009720831667080B3A03197F
:10080000032CE70AEB2B6408EA006508EB00512192
:100810000C308316E7006708EE3EF0001630031830
:10082000013EF10070088312D2007108D3009020BD
:100830008A110A12A300972083166708173A031932
:10084000232CE70A0B2C6608313A031D602CE701C4
:100850006708D63EF00016300318013EF10070081C
:100860008312D2007108D30090208A110A12A300CB
:100870009720831667080B3A0319402CE70A282CA7
:100880006408EA006508EB0051210C308316E7008C
:100890006708D63EF00016300318013EF1007008DC
:1008A0008312D2007108D30090208A110A12A3008B
:1008B000972083166708173A0319602CE70A482C1B
:1008C0006608323A031D9D2CE70167081E3EF000C2
:1008D00017300318013EF10070088312D20071082E
:1008E000D30090208A110A12A3009720831667086C
:1008F0000B3A03197D2CE70A652C6408EA006508A9
:10090000EB0051210C308316E70067081E3EF00013
:1009100017300318013EF10070088312D2007108ED
:10092000D30090208A110A12A3009720831667082B
:10093000173A03199D2CE70A852C6608333A031DE4
:10094000DA2CE7016708063EF00017300318013E75
:10095000F10070088312D2007108D30090208A1130
:100960000A12A3009720831667080B3A0319BA2CC2
:10097000E70AA22C6408EA006508EB0051210C305C
:100980008316E7006708063EF00017300318013EA3
:10099000F10070088312D2007108D30090208A11F0
:1009A0000A12A300972083166708173A0319DA2C56
:1009B000E70AC22C6608343A031D172DE7016708C1
:1009C0005E3EF00016300318013EF10070088312FD
:1009D000D2007108D30090208A110A12A300972038
:1009E000831667080B3A0319F72CE70ADF2C640813
:1009F000EA006508EB0051210C308316E700670818
:100A00005E3EF00016300318013EF10070088312BC
:100A1000D2007108D30090208A110A12A3009720F7
:100A200083166708173A0319172DE70AFF2C660883
:100A3000353A031D542DE7016708463EF000163095
:100A40000318013EF10070088312D2007108D30030
:100A500090208A110A12A3009720831667080B3A88
:100A60000319342DE70A1C2D6408EA006508EB0021
:100A700051210C308316E7006708463EF00016301F
:100A80000318013EF10070088312D2007108D300F0
:100A900090208A110A12A300972083166708173A3C
:100AA0000319542DE70A3C2D6608363A031D912D93
:100AB000E70167082E3EF00016300318013EF100F2
:100AC00070088312D2007108D30090208A110A1294
:100AD000A3009720831667080B3A0319712DE70AC4
:100AE000592D6408EA006508EB0051210C3083168B
:100AF000E70067082E3EF00016300318013EF100B3
:100B000070088312D2007108D30090208A110A1253
:100B1000A300972083166708173A0319912DE70A57
:100B2000792D6608373A031DCE2DE7016708763E1A
:100B3000F00016300318013EF10070088312D20055
:100B40007108D30090208A110A12A30097208316FF
:100B500067080B3A0319AE2DE70A962D6408EA00E0
:100B60006508EB0051210C308316E7006708763EDC
:100B7000F00016300318013EF10070088312D20015
:100B80007108D30090208A110A12A30097208316BF
:100B90006708173A0319CE2DE70AB62D6608383ACA
:100BA000031D0B2EE7016708BE3EF0001630031848
:100BB000013EF10070088312D2007108D30090202A
:100BC0008A110A12A3009720831667080B3A0319AB
:100BD000EB2DE70AD32D6408EA006508EB005121EC
:100BE0000C308316E7006708BE3EF000163003188D
:100BF000013EF10070088312D2007108D3009020EA
:100C00008A110A12A300972083166708173A03195E
:100C10000B2EE70AF32D6608393A031D482EE7012B
:100C20006708A63EF00016300318013EF100700878
:100C30008312D2007108D30090208A110A12A300F7
:100C40009720831667080B3A0319282EE70A102EFF
:100C50006408EA006508EB0051210C308316E700B8
:100C60006708A63EF00016300318013EF100700838
:100C70008312D2007108D30090208A110A12A300B7
:100C8000972083166708173A0319482EE70A302E73
:020C900008005A
:100C9200A1017208031D5E2E7108F2007008F100B6
:100CA200F001A1157208031D5E2E7108F200F10118
:100CB200A1112116720803196C2E2108F302031DDB
:100CC200031C702E0310F21B742EF00DF10DF20DA9
:100CD200F30B642E702E0130FC004621772E023079
:0E0CE200FC003A21772E0430FC004D21080062
:100CF0007B14FB1F832EF201FA1FFF30F200F1007C
:0A0D0000F000FA0DF20CFF300800BD
:100D0A00831203137408003A031D8E2EFF30F0007D
:100D1A009E2E83120313F8010830FC00700DF80DA3
:100D2A007408F80203189B2EF8070310F00DFC0B49
:040D3A00932E0800EC
:100D3E00831603136408EA006508EB00512183163D
:100D4E00E7016608EA00A42001307002E8000030D6
:100D5E00031C013E7102E90000306902031DB92E29
:100D6E0067086802031CCC2E67086607840000081B
:100D7E00EA00F220003083166906031DC82E6808AB
:0C0D8E0067060319CC2EE70AA82E080007
:100D9A00831203137408003A031DDC2E7508003A07
:100DAA00031DDC2EFF30F0007F30F100352F831257
:100DBA000313FD01F901F8017108700403190034E5
:100DCA0071087506FA00FA1BFD09FB01F51FF22EE0
:100DDA00F409F509F40A0319F50AF11FF92EF009C5
:100DEA00F109F00A0319F10A71087504FA00FA1BED
:100DFA000E2FC6207B18212FFD1F0034F009F109A0
:100E0A00F00A0319F10AF809F909F80A0319F90AA3
:100E1A000034F51F1D2FF11B192F7108F9007008F6
:100E2A00F800F101F001012FF101F001F00A00349C
:100E3A00F109F009FB0AFE2EF80A0319F90A7408E7
:100E4A007802031D012F75087902031D012FF9018C
:100E5A00F801F00A0319F10AF11F012F0000FF340B
:020E6A0008007E
:0E0E6C00073083120313FD00FD0B3A2F080020
:100E7A00831603134E08803A031D452F00304D0692
:100E8A00031D5E2F4F0884002D308000840A333002
:100E9A008000840A32308000840A37308000840A55
:100EAA0036308000840A38308000840A8001840A3F
:100EBA00BE2FD10180304E06F00080307002031D33
:100ECA00682F00304D020318742FFF30D1004D08EF
:100EDA00003CCD004E08031C013ECE01CE024F0855
:100EEA00840020308000840A20308000840A203068
:100EFA008000840A20308000840A20308000840A1E
:100F0A0030308000840A8001840A05304F07D000FF
:100F1A0000304E06031D932F00304D060319B72FDC
:100F2A000A30F400F5014D08F0004E08F100CD2614
:100F3A007808F0007908F1003030F007831650087D
:100F4A008400700880000A30F400F5014D08F000B2
:100F5A004E08F100CD2670088316CD007108CE0028
:100F6A00D0038D2F51080319BE2F500884002D304D
:040F7A0080000800EB
:100F7E00831603134E08840020308000840A20302C
:100F8E008000840A30308000840A8001840A023096
:100F9E004E07CF004D08003A0319ED2F0A30F4002A
:100FAE004D08F00085267808F0003030F0078316E3
:100FBE004F088400700880000A30F4004D08F000DD
:0E0FCE00852670088316CD00CF03D12F0800B2
:100FDC00831603134D08831203178D0083168C138D
:0E0FEC000C1483120C08F1007108F0000800CC
:10100000831603130C108B120B1283128611061118
:10101000851685106E088316B100F9309200831290
:101020006E0895000C309700043092008A119221CE
:101030008A151E30EA000430EB008A1151218A150E
:101040008316B201B3013208363EF00017300318A0
:10105000013E3307F10070088312D2007108D300FB
:101060008A1190208A150A12A3008A1197208A15E6
:10107000003083163306031D3F281630320603194D
:101080004528B20A0319B30A2328E401E5012A30EE
:10109000CD002030CE002030CF002030D0003030C6
:1010A000D1002E30D2003030D3002030D400203098
:1010B000D5002030D6002030D7002030D800203096
:1010C000D9002A30DA00DB01CD30E6008A119F26F4
:1010D0008A156430F400F50183126B08F000F10109
:1010E0008A111D218A150A30F400F5018A111D218B
:1010F0008A157808F0007908F10070088316A700B7
:101100007108A8002A30EA00EB018A1151218A15E2
:1011100083162708303EEA008A11F2208A150A3029
:10112000F400F5016B08F000F1018A111D218A1508
:101130000A30F400F5018A111D218A157808F000A3
:101140007908F10070088316A7007108A8007008DC
:10115000303EEA008A11F2208A150A30F400F501C7
:101160006B08F000F1018A111D218A157808F00042
:101170007908F10070088316A7007108A8007008AC
:10118000303EEA008A11F2208A15031306308316D6
:10119000E4000730E5009630E6000130E7008A11F0
:1011A000A9218A157008031937298312EB0A6B08E5
:1011B000FA3C0318DC28EB036430F400F5016B08FB
:1011C000F000F1018A111D218A150A30F400F501A1
:1011D0008A111D218A157808F0007908F10070083D
:1011E0008316A7007108A8002A30EA00EB018A11D3
:1011F00051218A1583162708303EEA008A11F22011
:101200008A150A30F400F5016B08F000F1018A112B
:101210001D218A150A30F400F5018A111D218A1555
:101220007808F0007908F10070088316A7007108AB
:10123000A8007008303EEA008A11F2208A150A30B0
:10124000F400F5016B08F000F1018A111D218A15E7
:101250007808F0007908F10070088316A70071087B
:10126000A8007008303EEA008A11F2208A15063084
:101270008316E4000630E5009630E6000130E70012
:101280008A11A9218A1570080319A8298312EB0372
:1012900001306B0203184D29EB0A6430F400F501AC
:1012A0006B08F000F1018A111D218A150A30F40043
:1012B000F5018A111D218A157808F0007908F100DE
:1012C00070088316A7007108A8002A30EA00EB0115
:1012D0008A1151218A1583162708303EEA008A11A7
:1012E000F2208A150A30F400F5016B08F000F101D4
:1012F0008A111D218A150A30F400F5018A111D2179
:101300008A157808F0007908F10070088316A700A4
:101310007108A8007008303EEA008A11F2208A1590
:101320000A30F400F5016B08F000F1018A111D216B
:101330008A157808F0007908F10070088316A70074
:101340007108A8007008303EEA008A11F2208A1560
:1013500006308316E4000530E5009630E6000130E3
:10136000E7008A11A9218A1570080319C1290130E3
:10137000E40083126B088316E5008A1163218A1545
:10138000C229C5281E300313EA000530EB008A117C
:1013900051218A158316B201B3013208D73EF000FD
:1013A0000F300318013E3307F10070088312D2009A
:1013B0007108D3008A1190208A150A12A3008A119D
:1013C00097208A15003083163306031DE9291C3047
:1013D00032060319EF29B20A0319B30ACD290630E0
:1013E000E4000730E5009630E6000130E7008A119E
:1013F000A9218A1570080319032AE401E5018A115D
:1014000063218A151A2A06300313E4000630E5002A
:101410009630E6000130E7008A11A9218A1570088C
:101420000319192AE4010130E5008A1163218A15A4
:101430001A2AC2298A1192218A158312EC01ED0120
:101440008316A901AA01AB01AC01AD01AE01AF0148
:10145000B0018312EF012512D2308100E7308F00F6
:1014600096308E000C100B1183160C148B160B1675
:02147000080072
:101472000030831603133002031D492A01302F0264
:10148200031D492A86302E02031D492AA0302D024F
:101492000318252B3630E4000330E5002C30CD0054
:1014A200CE01CD30E6008A119F268A151030F40055
:1014B2002730F500F601F7012D08F0002E08F100A3
:1014C2002F08F2003008F3008A1160228A15700892
:1014D2008316A7007108A8000530E4000230E50079
:1014E2007008E6008A11D8238A151130EA0002300A
:1014F200EB008A1151218A15EA016A088E3EF0003A
:1015020016300318013EF1007008D2007108D300B2
:101512008A1190208A150A12A3008A1197208A152F
:101522006A080B3A0319972AEA0A7E2A11308316AF
:10153200EA000330EB008A1151218A150C30EA00CF
:101542006A088E3EF00016300318013EF100700862
:10155200D2007108D3008A1190208A150A12A300C2
:101562008A1197208A156A08173A0319BA2AEA0AD1
:10157200A12A11308316E4000330E5002930CD00A2
:10158200CE01CD30E6008A119F268A15E830F4009C
:101592000330F500F601F7012D08F0002E08F100E6
:1015A2002F08F2003008F3008A1160228A150A30EF
:1015B200F400F501F601F7018A1160228A15780814
:1015C200F0007908F1007A08F2007B08F300700855
:1015D2008316A7007108A8001630E4000230E50067
:1015E2007008E6008A11D8238A156430F400F501E8
:1015F200F601F7012D08F0002E08F1002F08F20085
:101602003008F3008A1160228A150A30F400F501CD
:10161200F601F7018A1160228A157808F00079082C
:10162200F1007A08F2007B08F30070088316A70025
:101632007108A8002230E4000230E5007008E600DC
:101642008A11D8238A15F22C00303002031D332B65
:101652000F302F02031D332B42302E02031D332B7A
:1016620040302D020318122C3630E4000330E5001E
:101672002C30CD00CE01CD30E6008A119F268A158E
:10168200A030F4008630F5000130F6000030F7009B
:101692002D08F0002E08F1002F08F2003008F300A8
:1016A2008A1160228A1570088316A7007108A800A3
:1016B2000530E4000230E5007008E6008A11D82304
:1016C2008A151030F4002730F500F601F7012D08D5
:1016D200F0002E08F1002F08F2003008F3008A1102
:1016E20060228A150A30F400F501F601F7018A1129
:1016F20060228A157808F0007908F1007A08F20071
:101702007B08F30070088316A7007108A800113047
:10171200E4000230E5007008E6008A11D8238A1539
:101722001D30EA000230EB008A1151218A15EA01CC
:101732006A088E3EF00016300318013EF100700870
:10174200D2007108D3008A1190208A150A12A300D0
:101752008A1197208A156A080B3A0319B22BEA0AF2
:10176200992B1D308316EA000330EB008A115121B8
:101772008A150C30EA006A088E3EF0001630031813
:10178200013EF1007008D2007108D3008A11902046
:101792008A150A12A3008A1197208A156A08173A35
:1017A2000319D52BEA0ABC2B1D308316E400033043
:1017B200E5002930CD00CE01CD30E6008A119F260A
:1017C2008A15E830F4000330F500F601F7012D0820
:1017D200F0002E08F1002F08F2003008F3008A1101
:1017E20060228A150A30F400F501F601F7018A1128
:1017F20060228A157808F0007908F1007A08F20070
:101802007B08F30070088316A7007108A800223035
:10181200E4000230E5007008E6008A11D8238A1538
:10182200F22C3630E4000330E5002B30CD00CE013F
:10183200CD30E6008A119F268A158030F40096305A
:10184200F5009830F6000030F7002D08F0002E0861
:10185200F1002F08F2003008F3008A1160228A1585
:1018620070088316A7007108A8000530E400023052
:10187200E5007008E6008A11D8238A151130EA00C3
:101882000230EB008A1151218A15EA016A088E3E64
:10189200F00016300318013EF1007008D200710802
:1018A200D3008A1190208A150A12A3008A11972068
:1018B2008A156A080B3A0319602CEA0A472C113080
:1018C2008316EA000330EB008A1151218A150C308D
:1018D200EA006A088E3EF00016300318013EF1005D
:1018E2007008D2007108D3008A1190208A150A125A
:1018F200A3008A1197208A156A08173A0319832CC4
:10190200EA0A6A2C11308316E4000330E50029301C
:10191200CD00CE01CD30E6008A119F268A154030D7
:10192200F4004230F5000F30F6000030F7002D08C9
:10193200F0002E08F1002F08F2003008F3008A119F
:1019420060228A150A30F400F501F601F7018A11C6
:1019520060228A157808F0007908F1007A08F2000E
:101962007B08F30070088316A7007108A8001630E0
:10197200E4000230E5007008E6008A11D8238A15D7
:10198200A030F4008630F5000130F6000030F70098
:101992002D08F0002E08F1002F08F2003008F300A5
:1019A2008A1160228A150A30F400F501F601F70166
:1019B2008A1160228A157808F0007908F1007A0805
:1019C200F2007B08F30070088316A7007108A800D4
:1019D2002230E4000230E5007008E6008A11D823C4
:0419E2008A1508005A
:1019E60083120313FB0173080319302D7208FA00E2
:1019F600F2178E30F302F31F332DF309F30A083082
:101A06007302031C162DF300F10D7208F100F201AA
:101A160008307302031C162DF300F10DF101730853
:101A2600031D03101E2D730803191E2D0310F20C3F
:101A3600F10CF30B192D7B1B711C282D031C282D73
:101A4600F10A0319F20AF21B3F2DFA1F422DF20981
:101A5600F109F10A0319F20A422DF201F101422DB0
:101A66007B14FB1F452DF201FA1F452DFF30F200B6
:101A7600F100FA0DF20C452D0130FC00472D003027
:101A8600FC00472DFF30FC00FC0803194D2D8A1180
:0E1A960078268A157108F0007208F100080029
:101AA40083120313FB017308031D77080319A92D7F
:101AB40072087606FA007708F3077E30031C662D59
:101AC400F3020318AE2D692DF302031CB32D720823
:101AD400F8007108FC007008FD00F817F6170310F1
:101AE400F201F101F0011830A1007D1C832D74086E
:101AF400F00775080318750FF10776080318760FB9
:101B0400F207F20CF10CF00CF80CFC0CFD0C0310B9
:101B1400A10B772DF21B932DF80DF00DF10DF20DA5
:101B2400F3037B1B701CA52DF81FA52DF00A0319C8
:101B3400F10A0319F20A031DA52DF20CF10CF00CA5
:101B4400F30A0319AE2DFA1FF2130030B72D01303A
:101B54008A1146218A15B72D02308A1186218A15E9
:0E1B6400B72D04308A113A218A1500000800BE
:101B7200831203139F01C0309F04F03083169F0528
:101B82001F179F174D08F000F00D7010F00D701028
:101B9200F00D7010700883129F041F148A113627EB
:101BA2008A151F151F1DD72D0000D32D1F101E08CB
:101BB200F100F00183161E087004CE007108CF00F8
:0E1BC2000030CF044E08F0004F08F10008007C
:101BD000831203137008F8007108F000F101F2019C
:101BE000F301FB01FC019630F300FA01F01FFE2D1A
:101BF000F809F009F80A0319F00AFA177008F10059
:101C00007808F000F801F2018A1149268A150800C7
:101C10008312031387102130A3008A1197208A159D
:101C2000BF30A3008A1197208A150630A3008A11BD
:101C300097208A151330A3008A1197208A15203027
:101C4000A3008A1197208A150C30A3008A119720CF
:061C50008A15871408004C
:101C5600FF3083120313D400FF30D500FF30D600C7
:101C6600FF309730CF000030D0002330D100003055
:101C76009412831687128711071683129401403037
:0A1C860083169400831294160800E0
:101C900083160313981690308312980083168717C3
:101CA000071383128C1E572E1A08F000512E0800BD
:101CB000831203132230FC00F801F901FA01FB0141
:101CC000FC0303198E2E0310FB0CFA0CF90CF80C14
:101CD000F30CF20CF10CF00C031C602EFC03031946
:101CE000802E7408F80775080318750FF907760831
:101CF0000318760FFA0777080318770FFB07642E8F
:101D00007408F80775080318750FF90776080318A3
:0E1D1000760FFA0777080318770FFB07080015
:101D1E0083160313CE014D0884000008CF004F0830
:101D2E00003A0319A72E4F08E4008A1113228A15D0
:101D3E008316CE0A4E084D0784000008CF00962E5B
:021D4E0008008B
:101D5000831603135108840020308000840A203049
:101D60008000840A20308000840A20308000840AA9
:101D700020308000840A20308000840A20308000D7
:101D8000840A20308000840A20308000840A3030A9
:101D90008000840A8001840A09305107D200003093
:101DA000F0005006031DDE2E70084F06031DDE2EC8
:101DB00070084E06031DDE2E4D08003A03191A2F37
:101DC0000A30F400F501F601F7014D08F0004E0865
:101DD000F1004F08F2005008F3008A1160228A15C2
:101DE0007808F0007908F1007A08F2007B08F30027
:101DF0003030F007831652088400700880000A30E3
:101E0000F400F501F601F7014D08F0004E08F1006D
:101E10004F08F2005008F3008A1160228A157008FA
:101E20008316CD007108CE007208CF007308D00071
:061E3000D203CF2E0800D2
:102000000A1292210A160D30EA00EB010A12512140
:102010000A168316B201B30132089D3EF0000F305C
:102020000318013E3307F10070088312D2007108D3
:10203000D3000A1290208A110A16A3000A129720D0
:102040000A16003083163306031D2828393032065D
:1020500003192E28B20A0319B30A0C28E40102302E
:10206000E5002030D5002030D6002030D7002030C9
:10207000D8002030D9003630DA003030DB00303084
:10208000DC002030DD002030DE002030DF0020309A
:10209000E0002030E1002030E200E301D530E6002E
:1020A0000A129F260A165830B6000230B700CD013A
:1020B000CE010630E4000730E5003230E6000130A2
:1020C000E7000A12A9210A16700803196828752862
:1020D0004E08753A031D6E2830304D0603197428DA
:1020E000CD0A0319CE0A592873291E30EA0004309C
:1020F000EB000A1251210A168316B201B30132080D
:10210000363EF00017300318013E3307F100700827
:102110008312D2007108D3000A1290208A110A1685
:10212000A3000A1297200A16003083163306031DF7
:102130009B28163032060319A128B20A0319B30AE4
:102140007F280630E4000730E5009630E6000130D5
:10215000E7000A12A9210A167008031902290A3099
:102160003607F10037080318013EF2007108B60087
:102170007208B7007208133C031DC0287108883C20
:102180000318C6288830B6001330B7003608E400BC
:102190003708E500CF30E6000A121D220A16CF30BC
:1021A000E4000A12F0210A16E4010230E5002A30A8
:1021B000D5002030D6002030D7002030D800203085
:1021C000D9002030DA002030DB002030DC00203065
:1021D000DD002030DE002030DF002030E000203045
:1021E000E1002A30E200E301D530E6000A129F2622
:1021F0000A161E30E4000230E500CF30E6000A1275
:102200009F260A160630E4000630E5009630E60008
:102210000130E7000A12A9210A1670080319632980
:102220000A303602F1000030031C013E3702F20092
:102230007108B6007208B70000307202031D22292F
:102240003C307102031827293C30B600B70136082C
:10225000E4003708E500CF30E6000A121D220A1616
:10226000CF30E4000A12F0210A16E4010230E50042
:102270002A30D5002030D6002030D7002030D800BA
:102280002030D9002030DA002030DB002030DC00A4
:102290002030DD002030DE002030DF002030E00084
:1022A0002030E1002A30E200E301D530E6000A12D6
:1022B0009F260A161E30E4000230E500CF30E6000B
:1022C0000A129F260A160630E4000530E500963013
:1022D000E6000130E7000A12A9210A167008031966
:1022E00072297329A1283C30F400F5013608F0006A
:1022F0003708F1000A121D210A1670088316B6006D
:0C2300007108B7000A1292210A160800AA
:10230C003B3083160313BD000330BB008312A512B0
:10231C008316BA01B801B90183120611251785106D
:10232C008516EC01ED018316A901AA01AB01AC01E4
:10233C008312EF0125120A308316B600B701BC01D7
:10234C008312C601C701C801C9012511C401C50109
:10235C00A511073083169C00E130860001308312F2
:10236C008600831687010130CD000A12EE270A166B
:10237C0070080313EB008316CD010A12EE270A1620
:10238C0070080313CD008030831681008B018C0103
:10239C008D0183128C018D0183160514051585158D
:1023AC000512851285107008013A031DE7293C308F
:1023BC008312EE004E30CC004430CA003F30CB00CC
:1023CC00F02983125330EE007030CC006530CA0017
:1023DC005530CB006E088316B1008F309F00013052
:1023EC0083129F00F9308316920083126E089500B9
:1023FC000C309700043092008A150A122B268A1191
:10240C000A161A30FC00F830FD00FD0B0B2AFC0BF1
:10241C000B2A0000071487148A150A1208268A1141
:10242C000A161A30FC00F830FD00FD0B1B2AFC0BC1
:10243C001B2A00000A1292210A16EA01EB010A1269
:10244C0051210A168316B201B3013208003EF00086
:10245C0018300318013E3307F10070088312D200C4
:10246C007108D3000A1290208A110A16A3000A12CE
:10247C0097200A1683163308013A031D472AF730B2
:10248C00320603194D2AB20A0319B30A2B2A6730F4
:10249C00990018158A150A1248268A110A16063050
:1024AC00FB001330FC00AD30FD00FD0B5B2AFC0B78
:1024BC005B2AFB0B5B2A000000000020A901AA018B
:1024CC00AB01AC018312EF012512E7308F0096307F
:1024DC008E0035309000013083168C000C14831262
:1024EC000C10831601130B118312A4012408F000A5
:1024FC00F00D7010F00D701070082A3E84008001F1
:10250C00840A8001840A8001840A80012408053A27
:10251C000319922AA40A7C2A3C308316EA00033061
:10252C00EB000A1251210A168316B201B3013208CC
:10253C004D3EF00017300318013E3307F1007008D0
:10254C008312D2007108D3000A1290208A110A1645
:10255C00A3000A1297200A16003083163306031DB7
:10256C00B92A163032060319BF2AB20A0319B30A64
:10257C009D2AEA010530EB000A1251210A16831636
:10258C00B201B3013208643EF00017300318013E6B
:10259C003307F10070088312D2007108D3000A12BD
:1025AC0090208A110A16A3000A1297200A160030EE
:1025BC0083163306031DE42A163032060319EA2A61
:1025CC00B20A0319B30AC82A4E30E400E5012130DF
:1025DC00BE00BF01BE30E6000A129F260A16283044
:1025EC00E400E5012830BE00BF01BE30E6000A124F
:1025FC009F260A16D0308B0083122512EC01ED01B8
:10260C00A4018312251D4B2B8316CD018A150A12AA
:10261C00B9258A110A1670088312C2007108C3000A
:10262C008030F200803071067202031D1F2B70087F
:10263C00A83C0318302B8316B10318303102031851
:10264C00292B1830B1003108831295000C309700FB
:10265C000430920080304306F00080307002031D7D
:10266C00392BA130420203184A2B8316B10A3108C8
:10267C007F3C0318432B7F30B10031088312950047
:10268C000C309700043092002511A51C7E2B861E61
:10269C005D2B8230FC00DD30FD00FD0B532BFC0B61
:1026AC00532B00000000861E5D2B20308506861FF4
:1026BC007C2B4030A506251F702B28308316E40098
:1026CC00E5012830BE00BF01BE30E6000A129F268D
:1026DC000A167C2B83162830E400E5012030BE005E
:1026EC00BF01BE30E6000A129F260A168312A510FF
:1026FC00251C822B85142510A51E532C83160C101B
:10270C0039083702031D8C2B380836020318922B1C
:10271C00831206158516942B831206118316E40179
:10272C000430E5002030BE002030BF002030C00057
:10273C002030C1002030C2002030C3002030C40043
:10274C002030C5002030C6002030C7002030C80023
:10275C002030C9002030CA002030CB00CC01BE3064
:10276C00E6000A129F260A163B08CD002630CE0042
:10277C000A12BF270A162630E4000A12F0210A16A4
:10278C00E401E5012030BE002030BF002030C00045
:10279C002030C1002030C200C301BE30E6000A1256
:1027AC009F260A16E401E5012630E6000A129F2650
:1027BC000A16EA010430EB000A1251210A1683169C
:1027CC003908003C031DEC2B38080D3C0318F12B89
:1027DC000D30B800B9018312CE01003083163902D6
:1027EC00031DFC2B83124E0883163802031C102C7D
:1027FC002330EA000A12F2200A160030831639063A
:10280C00031D0B2C380883124E060319102C83124F
:10281C00CE0AF32B8316CD018A150A12B9258A111B
:10282C000A1670088312C2007108C3008A150A12B6
:10283C00E8258A110A16CD30F400CC30F5001C3096
:10284C00F6008030F7008A150A1252258A110A16F2
:10285C008A150A12F3248A110A167008E800710806
:10286C00E90070088316CD007108CE00A030CF00AF
:10287C000A123D270A16A030E4000A12F0210A16AB
:10288C003C30E400E501A030E6000A129F260A164F
:10289C00BB038312A51283160C148312251E2C2E37
:1028AC0083160C103C08003A031D692C0130BC0047
:1028BC00C730BD000A30BB003808A9003908AA008F
:1028CC00AB01AC01572D83122408F000F00D7010F1
:1028DC00F00D701070082A3E84006C0880006D08A2
:1028EC00840A8000840A8001840A8001A40A2408D6
:1028FC00053C0318822CA401831629088312E400DA
:10290C0083162A088312E50083162B088312E6002F
:10291C0083162C088312E7002A08F0002B08F1001C
:10292C002C08F2002D08F3002E08F0072F080318CE
:10293C002F0FF10730080318300FF2073108031876
:10294C00310FF3073208F00733080318330FF10780
:10295C0034080318340FF20735080318350FF30742
:10296C003608F00737080318370FF1073808031833
:10297C00380FF20739080318390FF3073A08F00734
:10298C003B0803183B0FF1073C0803183C0FF207F8
:10299C003D0803183D0FF3077008F4007108F500AB
:1029AC007208F6007308F7003E08F4073F08031896
:1029BC003F0FF50740080318400FF60741080318AE
:1029CC00410FF70774088316A9007508AA0076084A
:1029DC00AB007708AC00770883126702031D002D4B
:1029EC0076086602031D002D75086502031D002D77
:1029FC0074086402031C0F2D8316290883126402C9
:102A0C00D70083162A08031C013E83126502D800E6
:102A1C001B2D6408831629028312D7006508031C3A
:102A2C00013E83162A028312D80000305802031D7F
:102A3C00212D32305702031C572D6C08F0006D0805
:102A4C00F100F201F3010630F400F501F601F70193
:102A5C008A150A1258268A110A1670088316A900BC
:102A6C007108AA007208AB007308AC008312A401B1
:102A7C002408F000F00D7010F00D701070082A3E54
:102A8C0084006C0880006D08840A8000840A800130
:102A9C00840A80012408053A0319562DA40A3E2DF8
:102AAC00A40183162908F0002A08F1002B08F20073
:102ABC002C08F30083126B08F400F501F601F70102
:102ACC008A150A1258268A110A1670088316AD0048
:102ADC007108AE007208AF007308B0002908CD0071
:102AEC002A08CE002B08CF002C08D0005930D1007A
:102AFC008A150A12A8268A110A165930E4000A12FD
:102B0C00F0210A165930CD008A150A128F268A1127
:102B1C000A162030BE00BF01BE30CD008A150A1245
:102B2C008F268A110A161830E4000530E500203093
:102B3C00BE002030BF002030C0002030C10020304B
:102B4C00C2002030C3002030C4002030C50020302B
:102B5C00C6002030C700C801BE30E6000A129F260E
:102B6C000A161830E4000530E5005930E6000A1268
:102B7C009F260A168A150A1239228A110A16C7309C
:102B8C00BD000A30BB0083120619CD2D85128316A9
:102B9C00310883124B02031CE02D32308316E40003
:102BAC00E5012630BE00BF01BE30E6000A129F26AA
:102BBC000A16FF2D8316310883124A020318F32DCF
:102BCC0032308316E400E5012530BE00BF01BE3073
:102BDC00E6000A129F260A16FF2D83163230E400F7
:102BEC00E5012730BE00BF01BE30E6000A129F2669
:102BFC000A1683124C0883163102031C102E323035
:102C0C00E400E5012D30BE00BF01BE30E6000A1223
:102C1C009F260A160630E4000630E5003230E60046
:102C2C000130E7000A12A9210A1670080319282E90
:102C3C008A150A1200208A110A16C730BD000A3004
:102C4C00BB00922A8312251283160C14072B2D2EEF
:101E3600003400340034003400341F34203440347D
:101E460020341F347E344134413441347E343C34B2
:101E56003C343C343C343C347F340834143422342F
:101E660041347E347134713471347E347E347F343F
:101E76007F347F347E347E347934793479347E34D9
:101E8600C034E0347F3402341C340034E034E034AF
:101E9600E0340034143408343E34083414347C34CA
:101EA6000434183404347834FF3440344034203455
:101EB6007C347E346134613461347E340034603481
:101EC60060340034003420341034083404340234CE
:101ED6003E345134493445343E34003442347F3440
:101EE6004034003442346134513449344634213468
:101EF600413445344B3431341834143412347F347D
:101F06001034273445344534453439343C344A3466
:101F160049344934303401347134093405340334D6
:101F2600363449344934493436340634493449342C
:041F360029341E34F8
:101F3A004634493449344934313400347F344934DD
:101F4A004934493441340034013401347F34013492
:101F5A0001340034003400340034003400347E3458
:101F6A001134113411347E3400347F344034403417
:101F7A004034403400347E341134113411347E3408
:101F8A0000347F34093419342934463400347F3418
:101F9A0002340C3402347F340034023401345134B4
:041FAA0009340634BC
:101FAE007F344034403440344034003400344134C3
:101FBE007F344134003400347F3409340934093419
:101FCE00063400343E344134413441343E3400341E
:0A1FDE000234013451340934063492
:102C5C000034FC347A3486348634863486348634B4
:102C6C00863402340034003400347E34BD34C33432
:102C7C00C334C334C334C334C334BD347E3400349E
:102C8C000034FC347A348634863486348634863484
:102C9C008634023400340034003400348134C334BC
:102CAC00C334C334C334C334C334BD347E3400346E
:102CBC000034FC3478348034803480348034803474
:102CCC0080347834FC340034003400340134033460
:102CDC00033403340334033403343D347E3400347E
:102CEC000034003402340634063406340634063418
:102CFC0006347A34FC3400340034003400340034AC
:102D0C00003400340034003400343C347E3400345D
:102D1C000034003400340034003400340034003407
:102D2C0000340034003400340034003400340034F7
:102D3C0000340034003400340034003400340034E7
:102D4C000034FC347A3486348634863486348634C3
:102D5C0086347A34FC340034003400348134C33487
:102D6C00C334C334C334C334C334BD347E340034AD
:102D7C000034FC347A348634863486348634863493
:102D8C0086347A34FC34003400347E34BD34C3349D
:102D9C00C334C334C334C334C334BD347E3400347D
:102DAC000034003400340034003400340034003477
:102DBC0000347834FC3400340034003400340034F3
:102DCC00003400340034003400343C347E3400349D
:102DDC000034FC347A3406340634063406340634B3
:102DEC0006347A34FC34003400347E34BC34C034C1
:102DFC00C034C034C034C034C034BC347E3400342D
:102E0C000034003402348634863486348634863476
:102E1C0086347A34FC340034003400348134C334C6
:102E2C00C334C334C334C334C334BD347E340034EC
:102E3C000034003402348634863486348634863446
:102E4C0086347A34FC34003400347E34BD34C334DC
:102E5C00C334C334C334C334C33481340034003476
:102E6C00083408343E340834083400341034103438
:102E7C0010341034103400343E3441344134413475
:0E2E8C003E3400347F34083414342234413490
:102E9A004634493449344934313400341C342034FA
:102EAA00403420341C3400342034103408340434C0
:0E2EBA00023400347F34083404340434783495
:102EC8003E34413441344134223400347F340934AF
:102ED80009340934063400347F3402340C340234A3
:0E2EE8007F3400340034363436340034003485
:103000000034003400340034003400340034003420
:103010000034003400340034003400340034003410
:103020000034003400340034003400340034003400
:1030300000340034003400340034003400340034F0
:1030400000340034003400340034003400340034E0
:1030500000340034003400340034003400340034D0
:1030600000340034003400340034003400340034C0
:1030700000340034003400340034003400340034B0
:1030800000340034003400340034003400340034A0
:103090000034003400340034003400340034003490
:1030A0000034003400340034003400340034003480
:1030B0000034003400340034003400340034003470
:1030C0000034003400340034003400348034803460
:1030D000883488348834C434C434C434C434C634E2
:1030E000C634C634C634C634C634C734C734C7340D
:1030F000C734C734C734C734C734CF348F348F3460
:103100008F340F340F341F341E341E343E343E349B
:103110007E347E347C34FC34FC34FC34F834F834B3
:10312000F834F034F034F034E034E034C034C034F7
:1031300080348034003400340034003400340034EF
:1031400000340034003400340034003400340034DF
:10315000003400340034C034C034C034C034C0340F
:10316000C034C03440344434443442345234D23411
:10317000C934C934893409340834C434C434C43437
:10318000C434C434C434043404340C340C340C3427
:103190000C340C34DC34DC34D83439343934713404
:1031A000F334F334E334E334C73487340F341F3457
:1031B0001E343E347C34FC34FC34F834F834F034BF
:1031C000E134C1348334033407340F341F343F34C3
:1031D000FF34FF34FF34FF34FF34FF34FF34FE3458
:1031E000FC34FC34F834F034C0348034003400341F
:1031F00000340034003400340034003400341F3410
:103200001F343F343F343F343F34023402340234FD
:1032100002340234023406343F343F343D34003447
:1032200000341F341F343F343F343F343F340234C2
:103230000234023402340234023402343F343F3464
:103240003F34003400340034003400340334073495
:103250001F343F343F343E343C343834003400347F
:1032600003340F343F343F343F343F343F343F3432
:103270003C34003400340034003401343F343F34F3
:103280003F343F343F343F343F343F343F343F34A6
:103290003F343F343F343C34003400340034003495
:1032A0000034003400341F341F3415341534153401
:1032B000153400341F341F341034103410341034DB
:1032C00000341F341F3415341534153415340034CC
:1032D00000340E341F341F341134113411340034CF
:1032E000013401341F341F340134013400340034FC
:1032F0001F341D34053405341D34173400340034B4
:103300001E341B34113411341B340F3400341F3479
:10331000033406340C3418341F34003411341F3491
:103320001F34113400340E341F341F34113411345F
:103330001134003417341734153415341D341D344A
:1033400000340034003400340034003400340034DD
:1033500000340034003400340034003400340034CD
:10336000003400340034003400341C342034403441
:1033700020341C3400343834543454345434183425
:1033800000347C3408340434043408340034003409
:1033900060346034003400340034003442347F340C
:1033A000403400340034603460340034003400347D
:1033B0003E345134493445343E34003401347134A0
:1033C0000934053403347F344834443444343834C5
:1033D000003400340034003400340034003400344D
:1033E000003400340034003400340034003400343D
:02400E000A0F97
:020000040000FA
:104200000100390004000000000000000000000070
:10421000000000000000000000000000000000009E
:10422000000000000000000000000000000000008E
:10423000000000000000000000000000000000007E
:10424000000000000000000000000000000000006E
:10425000000000000000000000000000000000005E
:10426000000000000000000000000000000000004E
:10427000000000000000000000000000000000003E
:10428000000000000000000000000000000000002E
:10429000000000000000000000000000000000001E
:1042A000000000000000000000000000000000000E
:1042B00000000000000000000000000000000000FE
:1042C00000000000000000000000000000000000EE
:1042D00000000000000000000000000000000000DE
:1042E00000000000000000000000000000000000CE
:1042F00000000000000000000000000000000000BE
:1043000000000000000000000000000000000000AD
:10431000000000000000000000000000000000009D
:10432000000000000000000000000000000000008D
:10433000000000000000000000000000000000007D
:10434000000000000000000000000000000000006D
:10435000000000000000000000000000000000005D
:10436000000000000000000000000000000000004D
:10437000000000000000000000000000000000003D
:10438000000000000000000000000000000000002D
:10439000000000000000000000000000000000001D
:1043A000000000000000000000000000000000000D
:1043B00000000000000000000000000000000000FD
:1043C00000000000000000000000000000000000ED
:1043D00000000000000000000000000000000000DD
:1043E00000000000000000000000000000000000CD
:1043F00000000000000000000000000000000000BD
:00000001FF

